:100000000C94EA050C9412060C9412060C94120639
:100010000C9412060C9412060C9412060C94120600
:100020000C9412060C9412060C94301D0C949F1D17
:100030000C9495210C9412060C9412060C94120642
:100040000C9412060C9412060C9412060C941206D0
:100050000C9412060C9412060C9412060C942C208C
:100060000C9412060C9412060C9412060C941206B0
:100070000C9412060C9412060C9412060C941206A0
:100080000C94D11F0C9412060C9412060C941206B8
:100090000C9476200C9412060C9412060C94120602
:1000A0000C9412060C9412060C941206AED580A87D
:1000B0003FD300408D142002A1C8DA12817FD9F10C
:1000C000DB40A4A6AF070605040100080A0B0C0DCF
:1000D0000900000A0F205F0000000000000000007F
:1000E000000000000000000000000000000000FE12
:1000F000FE000000000000000019190000000000D0
:10010000001E1E00001E1E00000000000000000077
:100110000000000030FEFE3030FEFE300000031F05
:100120001F03031F1F03000070F8D8FE98980000FB
:1001300000000C18187F191F0F00001CB6A2F6CC87
:1001400060602030000101000E1B111B0E0000003A
:1001500000DC7EE6C6860C808000070F1C18191F85
:100160001E1F13000000001E1E0000000000000003
:1001700000000000000000000000E0FC1E02000083
:1001800000000000073F78400000000000021EFC55
:10019000E000000000000040783F07000000000081
:1001A000487830FE30784800000000000001000070
:1001B00000000000808080F0F0808080000001015D
:1001C000010F0F010101000000000000000000000D
:1001D00000000000407C3C00000000000000000027
:1001E0000000000000000003030303030000000000
:1001F000000000000000000000000000001C1C00C7
:1002000000000000000000C0F03C0E02000020389A
:100210001E07010000000000F0FC0EC6C60EFCF830
:100220000000030F1C18181C0F070000000C06FE2E
:10023000FE00000000001818181F1F1818180000F2
:100240000C06060686C67C380000181C1E1B1918F2
:10025000181800000C06C6C6C6C6FC3800000C18EC
:10026000181818190F0F000080C070180EFEFE003D
:10027000000003030303031F1F030000FE7E6666E6
:1002800066E6C68000000C181818181C0F0700003E
:10029000F0FCCE6666E6CC800000070F1C18181C28
:1002A0000F07000006060606E6FE3E0E00000010E0
:1002B0001C0F03000000000038FCC6C6C6C6FC3890
:1002C00000000F0F181818180F0F000078FCCE86CA
:1002D00086CEFCF80000000C1919191C0F03000051
:1002E000000000E0E000000000000000001C1C0016
:1002F00000000000000000E0E0000000000000003E
:10030000407C3C00000000008080C04060602030E5
:100310000000010103020606040C0000606060603A
:10032000606060600000060606060606060600001D
:100330003020606040C0808000000C04060602038C
:10034000010100000C0686C6667E1C00000000004D
:100350001B1B0000000000E0F0389CCCCCDCF8F067
:1003600000071F38736766667727000000C0FC3EF1
:100370003EFCC0000000181F0F03030F1F180000F1
:10038000FEFEC6C6C6C6FC3C00001F1F1818181883
:100390001F0F0000F0FC0C060606060C0000030F01
:1003A0000C181818180C0000FEFE0606060CFCF0CF
:1003B00000001F1F1818180C0F030000FEFEC6C611
:1003C000C6C6C60600001F1F181818181818000007
:1003D000FEFEC6C6C6C6C60600001F1F00000000FF
:1003E00000000000F0FC0C068686868C0000030FDF
:1003F0000C1819191F0F0000FEFEC0C0C0C0FEFE81
:1004000000001F1F000000001F1F0000000606FE66
:10041000FE06060000000018181F1F181800000034
:10042000000000060606FEFE00000C18181818183A
:100430000F0F0000FEFEE0F0FC0E060200001F1F82
:100440000000030F1E180000FEFE00000000000068
:1004500000001F1F1818181818180000FEFE3EF0A4
:10046000F03EFEFE00001F1F000101001F1F0000E4
:10047000FEFE1EF0C000FEFE00001F1F0000031E57
:100480001F1F0000F0FC0E06060EFCF00000030F1C
:100490001C18181C0F030000FEFEC6C6C6C67C7CD6
:1004A00000001F1F0000000000000000F0FC0E060E
:1004B000060EFCF00000030F1C18183C6F0700002C
:1004C000FEFEC6C6C6C6FC3C00001F1F000001039E
:1004D0001F1E1000387CE6C6C6C68C0000000C1833
:1004E000181818190F0F0000060606FEFE0606066D
:1004F00000000000001F1F0000000000FEFE0000C2
:100500000000FEFE0000070F1C18181C0F0700005B
:1005100006FEFC0000FCFE06000000001F1F1F1F5F
:100520000000001EFEE000F0F000E0FE1E001F1FB5
:100530001E01011E1F1F0000020E3EF8F83E0E02B3
:100540000000101C1F03031F1C1000020E3E78E069
:10055000E0783E0E02000000001F1F0000000000B7
:10056000060686C6F67E1E0E00001C1E1F1B1818EF
:10057000181800000000FEFE02020000000000004B
:100580007F7F404000000000020E38E08000000045
:10059000000000000000030E38200000000202FEF0
:1005A000FE00000000000040407F7F0000000010BF
:1005B000181C0E060E1C18100000000000000000A1
:1005C000000000000000000000000000004040406B
:1005D000404040404040400000010306040000004D
:1005E000000000000000000000000000006030B0CB
:1005F000B0B0F0E000000E1F1B19190D1F1F000006
:10060000FEFE60303070E0C000001F1F0C18181C88
:100610000F070000C0E07030303030600000070F7E
:100620001C181818180C0000C0E070303060FEFE76
:100630000000070F1C18180C1F1F0000C0E0B0B00E
:10064000B0B0E0C00000070F1D191919190D000006
:100650003030FCFE36363600000000001F1F000060
:1006600000000000C0E070303060F0F000000337A0
:100670006E6C6C667F3F0000FEFE60303030F0E054
:1006800000001F1F000000001F1F0000003030F797
:10069000F700000000001818181F1F181818000095
:1006A000003030F7F700000000006060607F3F001E
:1006B00000000000FEFE80E07030100000001F1FF0
:1006C0000103071E181000000606FEFE00000000D1
:1006D000000000000F1F181818000000F0F030F0A4
:1006E000E030F0E000001F1F001F1F001F1F000070
:1006F000F0F060303030F0E000001F1F000000001C
:100700001F1F0000C0E070303070E0C00000070F15
:100710001C18181C0F070000F0F060303070E0C0AB
:1007200000007F7F060C0C0E07030000C0E0703055
:100730003060F0F0000003070E0C0C067F7F000015
:1007400000F0F060303030300000001F1F0000006B
:1007500000000000E0F0B0B0B0B0306000000C1954
:100760001919191B1F0E00003030FCFC303030000E
:10077000000000000F1F181818000000F0F0000023
:100780000000F0F000000F1F1818180C1F1F0000C9
:1007900030F0E00000E0F030000000010F1E1E0FFE
:1007A00001000070F00000C0C00000F07000071FE2
:1007B0001E03031E1F0700001030F0C0C0F03010F1
:1007C000000010181E07071E1810000010F0F0801F
:1007D00000F0F03000000060637F1F0F0100000098
:1007E00030303030B0F070300000181C1E1B19186B
:1007F00018180000000000FCFE02020000000001CA
:10080000013E7E4040000000000000FEFE000000AF
:1008100000000000007F7F0000000000000202FED8
:10082000FC00000000000040407E3E01010000008E
:1008300080C0C0C0808080C00000010000000101B5
:10084000010000000005072061000000000000001A
:100850005F00000007000700147F147F14242A7F24
:100860002A122313086462364955225000050300FA
:1008700000001C2241000041221C00082A1C2A08FA
:1008800008083E0808005030000008080808080062
:100890006060000020100804023E5149453E0042BD
:1008A0007F400042615149462141454B31181412A5
:1008B0007F1027454545393C4A49493001710905B2
:1008C000033649494936064949291E003636000093
:1008D0000056360000000814224114141414144168
:1008E000221408000201510906324979413E7E1165
:1008F00011117E7F494949363E414141227F4141A4
:10090000221C7F494949417F090901013E4141516A
:10091000327F0808087F00417F41002040413F01AD
:100920007F081422417F404040407F0204027F7FC5
:100930000408107F3E4141413E7F090909063E41BE
:1009400051215E7F09192946464949493101017FF4
:1009500001013F4040403F1F2040201F7F201820C2
:100960007F63140814630304780403615149454309
:1009700000007F4141020408102041417F00000433
:1009800002010204404040404000010204002054A3
:100990005454787F484444383844444420384444CC
:1009A000487F3854545418087E09010208145454DE
:1009B0003C7F0804047800447D40002040443D0012
:1009C000007F10284400417F40007C041804787C9C
:1009D0000804047838444444387C14141408081477
:1009E00014187C7C080404084854545420043F44E0
:1009F00040203C4040207C1C2040201C3C4030409B
:100A00003C44281028440C5050503C4464544C44FE
:100A1000000836410000007F000000413608000851
:100A2000082A1C08081C2A080800060909060003F1
:100A30000C0F30333C3FC0C3CCCFF0F3FCFF0000C1
:100A40000000240027002A002D00300000000000D4
:100A50002300260029002C002F00080B00020202B0
:100A6000000009040000010202000005240010013A
:100A700005240101010424020605240600010705DE
:100A8000810310004009040100020A00000007056C
:100A9000020240000007058302400000040309042D
:100AA00012010002EF0201404123368000010102E1
:100AB000030141726475696E6F204C4C43004172B2
:100AC0006475696E6F204C656F6E6172646F00AC07
:100AD000001980400031323A34373A3531004E6FD8
:100AE0007620323620323032300041545A004154A0
:100AF0005A0041542B424C45504F5745524C455695
:100B0000454C3D340041542B4741504445564E41DD
:100B10004D453D42617369635F57617463680000CE
:100B200000000200090F0000030401000C00000097
:100B30000000000000000000000000000000415420
:100B40002B424C45484944434F4E54524F4C4B4521
:100B5000593D4D4544494150524556494F55530022
:100B600041542B424C45484944434F4E54524F4CFC
:100B70004B45593D4D454449414E455854000408A4
:100B80000201104080401020408040800802040193
:100B90008040201002011080102040402000000002
:100BA00000250028002B002E00310004040404045A
:100BB0000304050202020204030202020206060600
:100BC00006060604040202020404030A3C2D200067
:100BD000D2219C2A11241FBECFEFDAE0DEBFCDBFA9
:100BE00012E0A0E0B1E0E0E7F4E602C005900D926B
:100BF000AA3EB107D9F725E0AAEEB2E001C01D92E6
:100C0000AB38B207E1F715E0C9EED5E004C0219793
:100C1000FE010E94702DC83ED107C9F70E94C02274
:100C20000C942B320C940000623030F4FC012485CB
:100C30002613648781E0089580E008959093BD04B1
:100C40008093BC04FC0124913196E491F22F3197FA
:100C500019F41092B804089581E08093B8040895BF
:100C6000FC0180914804882311F13FB7F89482E099
:100C70008093E9002091F200822F90E01816190667
:100C800014F481E090E0882339F0289844E64093FA
:100C9000BF034091F1004083222339F02091F200FC
:100CA000211103C02BE62093E8003FBF08958FEF8A
:100CB0009FEF08952FB7F89483E08093E900909117
:100CC000E800892F807295FF04C09091F20080E4C3
:100CD000891B2FBF08958091B70381110DC082E059
:100CE0008093B30384E08093B4031092B603109210
:100CF000B50381E08093B70383EB93E0089580E030
:100D000090E0892B49F080E090E0892B29F00E9447
:100D1000000081110C9400000895FC01EB54FF4F7A
:100D200017821682118610861386128608950895FA
:100D30000895409183035091840320918103309161
:100D4000820342175307B4F49091E8009570E1F3E1
:100D50009091E80092FD19C08093F1008091830387
:100D60009091840301968F739927892B19F48EEF44
:100D70008093E8008091830390918403019690937F
:100D800084038093830381E0089580E00895DF92D7
:100D9000EF92FF920F931F93CF93DF93D82E8A0188
:100DA000EB017B01E40EF51ECE15DF0559F0D7FEF1
:100DB00012C0FE0184910E94990621968111F4CF00
:100DC0000FEF1FEFC801DF91CF911F910F91FF909F
:100DD000EF90DF9008958881EECF0F931F93CF930C
:100DE000DF931F92CDB7DEB782E0898342E450E003
:100DF0006AE57AE080E80E94C7060E946B06DC0183
:100E000012960D911C910115110589F0D801ED91F3
:100E1000FC910280F381E02DBE016F5F7F4FC8011E
:100E2000099597FD04C0F80100851185ECCF8981F3
:100E30000F90DF91CF911F910F910895615030F085
:100E40002091F100FC0120830196F8CF289884E6D8
:100E50008093BF030895DC01ED91FC910190F08136
:100E6000E02D0994EF92FF920F931F93CF93DF939E
:100E70008C017B01D0E0C0E0F701EC0FFD1F649115
:100E8000662361F0D801ED91FC910190F081E02D95
:100E9000C8010995892B11F02196EECFCE01DF9183
:100EA000CF911F910F91FF90EF900895AF92BF9255
:100EB000CF92DF92EF92FF920F931F93CF93DF9326
:100EC0006C017B018B01040F151FEB015E01AE1855
:100ED000BF08C017D10759F06991D601ED91FC9177
:100EE0000190F081E02DC6010995892B79F7C501A4
:100EF000DF91CF911F910F91FF90EF90DF90CF90F6
:100F0000BF90AF900895CF93DF931F92CDB7DEB718
:100F10006983DC01ED91FC910280F381E02D41E0D9
:100F200050E0BE016F5F7F4F09950F90DF91CF9129
:100F3000089583E08093E9008091F200882319F0FE
:100F40008AE38093E80008950E945A0690E008958D
:100F5000CF93DF931F92CDB7DEB7FC0184859585D3
:100F600097FD08C02FEF3FEF358724870F90DF9163
:100F7000CF910895CE0101960E943006019719F491
:100F8000898190E0F3CF8FEF9FEFF0CF0F931F9306
:100F9000CF93DF931F92CDB7DEB78C01FC01848520
:100FA000958597FF0BC0CE0101960E9430060197F0
:100FB00071F4898190E0F80195878487F801848530
:100FC00095850F90DF91CF911F910F9108958FEF2D
:100FD0009FEFF1CFFC018485958597FD0BC09FB7EE
:100FE000F89482E08093E9008091F2009FBF90E046
:100FF000019608959FB7F89482E08093E90080916C
:10100000F2009FBF90E0089581508F3008F047C0F4
:10101000E82FF0E0E25FF74F0C94702D2B082F08BB
:101020001D08230827084F084F084F0832083808C2
:101030003C08400846084F084A08809180008F7796
:10104000809380000895809180008F7DF9CF8091FA
:101050008000877FF5CF84B58F7784BD089584B5F0
:101060008F7DFBCF809190008F77809390000895C3
:10107000809190008F7DF9CF80919000877FF5CF90
:101080008091C0008F778093C00008958091C00048
:101090008F7DF9CF8091C200877F8093C200089531
:1010A000CF93DF93282F30E0F901E15EF44F849174
:1010B000F901E258F44FD491F901E555F44FC49188
:1010C000CC23A1F081110E940408EC2FF0E0EE0F78
:1010D000FF1FE45BF54FA591B491EC91ED2381E006
:1010E00090E009F480E0DF91CF91089580E090E0F6
:1010F000FACF1F93CF93DF93282F30E0F901E15E01
:10110000F44F8491F901E258F44FD491F901E55577
:10111000F44FC491CC23A9F0162F81110E9404082A
:10112000EC2FF0E0EE0FFF1FE356F44FA591B491C2
:101130008FB7F894EC91111108C0D095DE23DC93A1
:101140008FBFDF91CF911F910895DE2BF8CF809153
:101150001901893069F4EAECFBE0E4918FEF8093A8
:101160001901E13061F040F0E33079F0E43099F0BA
:1011700060E089E00C94790810926E00F9CF8091BC
:101180006F008D7F80936F00F3CF809171008D7F12
:1011900080937100EDCF809172008F7B80937200FD
:1011A000E7CFCF93DF9390E0FC01E258F44F249116
:1011B0008555944FFC0184918823C9F090E0880FF5
:1011C000991FFC01E25CF54FA591B491FC01E35637
:1011D000F44FC591D49161110DC09FB7F8948C91D3
:1011E000209582238C938881282328839FBFDF91B9
:1011F000CF910895623051F49FB7F8943C91822FBB
:10120000809583238C93E8812E2BEFCF8FB7F894B2
:10121000EC912E2B2C938FBFEACF8F929F92AF929F
:10122000BF92CF92DF92EF92FF920F931F93CF93D3
:101230008C016A017B0180911901893079F08F3F1F
:1012400009F442C0CF911F910F91FF90EF90DF9072
:10125000CF90BF90AF909F908F900895EAECFBE005
:10126000C491C7FDEFCF61E089E00E94D108C111B0
:1012700044C0980150E040E068E478EE81E090E0FE
:101280000E94CB2B49015A0181E0881A9108A108DC
:10129000B10885B5887F836085BD2FEF3FEFA90139
:1012A000C114D104E104F10409F43BC1D801AA0F2F
:1012B000BB1FA70196010E94EA2B28EE33E040E015
:1012C00050E00E94A92B27C189E080931901EAEC24
:1012D000FBE0C491CF3F09F4B5CFC13009F440C061
:1012E00030F1C33009F45AC0C43009F479C0C7FDE5
:1012F000A9CF61E089E00E94D108980150E040E068
:10130000C23009F08BC060E970ED83E090E00E948C
:10131000CB2B49015A0181E0881A9108A108B10834
:10132000C114D104E104F10409F0C0CF8BCF14BC87
:1013300015BC84B5826084BD85B5816085BDE4EB54
:10134000FBE0E491F0E0EE0FFF1FE356F44F8591D0
:101350009491E7E8FBE0E491E093C503C0E083CF1C
:1013600010928000109281008091810088608093AB
:10137000810080918100816080938100E4EBFBE03B
:10138000E491F0E0EE0FFF1FE356F44F8591949146
:10139000E7E8FBE0E491E093C40365CF109290008E
:1013A00010929100809191008860809391008091CB
:1013B0009100816080939100E4EBFBE0E491F0E028
:1013C000EE0FFF1FE356F44F859194919093C30362
:1013D0008093C203E7E8FBE0E491E093C10343CFCD
:1013E0001092C0001092C1008091C100886080936B
:1013F000C1008091C10081608093C100E4EBFBE0FB
:10140000E491F0E0EE0FFF1FE356F44F85919491C5
:10141000E7E8FBE0E491E093C00325CF60E072E1F0
:101420008AE790E00E94CB2B49015A0181E0881A9B
:101430009108A108B108C13009F580918100887F29
:101440008160809381002FEF3FEFA901C114D10487
:10145000E104F10409F02ACF90928900809288007B
:101460002093CE033093CF034093D0035093D10306
:1014700080916F00826080936F00E4CEC33009F5E5
:1014800080919100887F8160809391002FEF3FEFE2
:10149000A901C114D104E104F10409F007CF90922D
:1014A0009900809298002093CA033093CB03409315
:1014B000CC035093CD0380917100826080937100C2
:1014C000C1CEC430F9F48091C100887F81608093DF
:1014D000C1002FEF3FEFA901C114D104E104F104D1
:1014E00009F0E4CE8092CF002093C6033093C70367
:1014F0004093C8035093C903809172008064809325
:101500007200A0CE2FEF3FEFA901C114D104E10476
:10151000F10409F0CBCEC13009F49ECF8CF4C11197
:1015200091CE87BC2093D2033093D3034093D4034E
:101530005093D50380916E00826080936E0082CEBE
:10154000C33009F4ACCFC43069F27CCE3FB7F89415
:1015500080917D0390917E03A0917F03B0918003E1
:1015600026B5A89B05C02F3F19F00196A11DB11DFE
:101570003FBFBA2FA92F982F8827BC01CD01620F3A
:10158000711D811D911D42E0660F771F881F991FF5
:101590004A95D1F708958F929F92AF92BF92CF92C2
:1015A000DF92EF92FF926B017C010E94A60A4B0131
:1015B0005C01C114D104E104F104B9F00E94A60A4F
:1015C000681979098A099B09683E7340810591056C
:1015D00080F321E0C21AD108E108F10888EE880EF4
:1015E00083E0981EA11CB11CE4CFFF90EF90DF9028
:1015F000CF90BF90AF909F908F9008951092480425
:1016000010924704109246048091D7008160809325
:10161000D70080EA8093D80089B5806189BD89B5FB
:10162000826089BD09B400FEFDCF61E070E080E01A
:1016300090E00E94CB0A8091D8008F7C80618093DB
:10164000D8008091E000807F8093E0008091E100ED
:101650008E7E8093E1008DE08093E200559A209A7F
:1016600008958F929F92AF92BF92CF92DF92EF92A6
:10167000FF920F931F93CF93DF936C017B018A013D
:1016800080910C01882309F45CC080914804882370
:1016900009F457C08091460480FF05C08091E000A6
:1016A00082608093E000E801B12C8AEFA82E93E0DD
:1016B000892E2AE3922E209711F4BB20D9F10E94A3
:1016C0005A0681110AC0AA94AA20D9F161E070E0FB
:1016D00080E090E00E94CB0AEECF8C171D0611F03F
:1016E0000CF08C2F9FB7F8948092E9002091E800CD
:1016F00025FD02C09FBFDFCF282F30E0C21BD30BD8
:10170000F701815020F041914093F100FACFE20EB1
:10171000F31EBB2021F09092E800B12CEBCF80911A
:10172000E80085FDE7CF9092E800BB24B3942097B2
:1017300009F3F3CF5D9884E68093860310161106B3
:101740003CF081E090E0F6019383828310E000E0BA
:10175000C801DF91CF911F910F91FF90EF90DF9023
:10176000CF90BF90AF909F908F9008952FB7F8942F
:101770006091790370917A0380917B0390917C034F
:101780002FBF089520915503260F3327331F213291
:101790003105ECF420911C04FC0190E080E0243041
:1017A00069F082E00895A09155032191AC014B5C52
:1017B0005C4FA40FB52FB11D2C930196861798F39B
:1017C00080915503680F6093550380E0089581E090
:1017D000089510921C0481E080931B041092F6037C
:1017E00061E082E00E94790861E083E00E9479086C
:1017F000E9EBF0E080818E7F808380818D7F808324
:1018000088E48093B80085E48093BC000895CF936A
:10181000DF9391E0909334038823B9F0C091B8002E
:10182000D091BA008091BC008A7B8093BC0060E0BC
:1018300082E00E94790860E083E00E9479080E94BB
:10184000E90BD093BA00C093B800DF91CF9108950F
:10185000CF92DF92EF92FF920F931F93CF93DF937C
:10186000D091450481E0D13208F09CC0C09144047D
:101870000E94A60A6B017C0180911C0481116CC03E
:1018800082E080931C0481E080931B048FEF80939F
:101890001A0410921904D0931804A4E2B4E0E8EFFB
:1018A000F3E080E0D8138DC01092F7038091F70326
:1018B000CC0FC82BC093F7038091F603813009F059
:1018C00084C01092F6030E94A60A6B017C018091ED
:1018D000F7038093BB0080911E0490911F04A09198
:1018E0002004B0912104892B8A2B8B2BA1F00E941C
:1018F000A60A00911E0410911F042091200430912B
:1019000021046C197D098E099F09061717072807FE
:10191000390708F442C08091BC0083FDD8CF85EC24
:101920008093BC000E94A60A6B017C0180911C047C
:10193000823009F44CC080911A048F3F09F469C0C9
:1019400080911A04803209F466C080911A048033B1
:1019500009F463C084E026C080911E0490911F04A6
:10196000A0912004B0912104892B8A2B8B2B09F4A0
:1019700083CF0E94A60A00911E0410911F0420919B
:101980002004309121046C197D098E099F090617E6
:1019900017072807390708F06FCF80911D040E94B0
:1019A000070C85E010922304109245041092220443
:1019B000DF91CF911F910F91FF90EF90DF90CF902B
:1019C00008959D9191938F5F6DCF85EEA9CF809102
:1019D0001E0490911F04A0912004B0912104892B32
:1019E0008A2B8B2B09F4A2CF0E94A60A00911E0419
:1019F00010911F0420912004309121046C197D095D
:101A00008E099F09061717072807390708F08ECF98
:101A1000C4CF80E0C7CF82E0C5CF83E0C3CFCF92F1
:101A2000DF92EF92FF920F931F93CF93DF93D82F04
:101A3000C62F613208F098C00E94A60A6B017C0193
:101A400080911C0481116BC081E080931C04809301
:101A50001B049FEF90931A04109219049C0F90930B
:101A600018048093F7038091F703DD0FD82BD093F0
:101A7000F7038091F603813009F078C01092F603E5
:101A80000E94A60A6B017C018091F7038093BB0042
:101A900080911E0490911F04A0912004B091210414
:101AA000892B8A2B8B2BA1F00E94A60A00911E0481
:101AB00010911F0420912004309121046C197D099C
:101AC0008E099F09061717072807390708F448C029
:101AD0008091BC0083FDD8CF85EC8093BC000E9430
:101AE000A60A6B017C0180911C04813009F440C07E
:101AF000809119048C1710F4C0911904E8EFF3E0F9
:101B0000A6EDB3E080E08C1355C08C2FDF91CF9110
:101B10001F910F91FF90EF90DF90CF9008958091EB
:101B20001E0490911F04A0912004B0912104892BE0
:101B30008A2B8B2B09F484CF0E94A60A00911E04E5
:101B400010911F0420912004309121046C197D090B
:101B50008E099F09061717072807390708F070CF65
:101B600080911D040E94070CC0E0CFCF85EEB5CF59
:101B700080911E0490911F04A0912004B091210433
:101B8000892B8A2B8B2B09F4AECF0E94A60A0091D9
:101B90001E0410911F0420912004309121046C191F
:101BA0007D098E099F09061717072807390708F0CE
:101BB0009ACFD6CF91919D938F5FA5CF0895E09155
:101BC0008C0380918B03E81730F4F0E0EA52FC4F6D
:101BD000808190E008958FEF9FEF089590918C039E
:101BE00080918B032FEF3FEF981748F4E92FF0E037
:101BF000EA52FC4F208130E09F5F90938C03C90133
:101C0000089580918B0390918C03891B990B089503
:101C1000CF92DF92EF92FF920F931F93CF93DF93B8
:101C20007C01CB018A0120912204222389F0EB015F
:101C30006B01C40ED51ECC15DD0569F06991D70185
:101C4000ED91FC910190F081E02DC7010995F3CF52
:101C5000642F0E94C20BC801DF91CF911F910F9199
:101C6000FF90EF90DF90CF900895CF93DF931F9276
:101C7000CDB7DEB76983209122042223F9F02091A9
:101C80004504203258F021E030E0FC013383228308
:101C900090E080E00F90DF91CF9108958091230430
:101CA000E82FF0E0EC5DFB4F998190838F5F80938C
:101CB00023048093450481E090E0ECCF61E0CE0105
:101CC00001960E94C20BF7CF8F929F92AF92BF9264
:101CD000CF92DF92EF92FF920F931F93CF93DF93F8
:101CE0008C010F591F4FF80120812F3FA1F46EBDC9
:101CF00000000DB407FEFDCFCEB58C2FDF91CF9144
:101D00001F910F91FF90EF90DF90CF90BF90AF9019
:101D10009F908F900895D62FC0E027E0E22EF12CFF
:101D2000CC24C394D12C5C01F2E6AF0EB11C4C0163
:101D300023E6820E911CCC0F60E0F80180810E94A6
:101D40007908B6010E2C01C0660F0A94EAF76D23DC
:101D5000F50180810E94790861E0F80180810E948C
:101D60007908F40180810E945008892B09F0C16034
:101D7000F1E0EF1AF108F8F660E0F80180810E94C6
:101D80007908BBCFEF92FF920F931F93CF93DF930E
:101D90007C01EB018B01040F151FC017D10731F037
:101DA0006881C7010E94640E8993F7CFDF91CF91BC
:101DB0001F910F91FF90EF900895CF92DF92EF92D5
:101DC000FF92CF93DF93EC010E94B60BC880D980BD
:101DD000EA80FB806C197D098E099F0921E0CC8087
:101DE000DD80EE80FF806C157D058E059F0508F473
:101DF00020E0822FDF91CF91FF90EF90DF90CF9086
:101E00000895FC01908190539A3008F090E0818110
:101E100080532AE0929F800D11240895CF93DF9381
:101E2000EC019C818E81981768F48F856827E88182
:101E3000F9810084F185E02D42E0CE0109958C8185
:101E40008F5F8C83DF91CF910895CF93CFB7F894B4
:101E500080913303811127C0ECEBFBE08491EFE824
:101E6000FBE09491E82FF0E0EE0FFF1FE25CF54FEE
:101E7000A591B491EC91E92321F461E081E10E9404
:101E8000790861E081E10E94D1088CB580618CBD48
:101E90008CB580648CBD61E08FE00E94D10861E068
:101EA00080E10E94D108809133038F5F80933303D8
:101EB000CFBFCF9108958091940390919503813085
:101EC000910529F490939303809392030895892BAD
:101ED00021F410929303109292030895DC01ED9186
:101EE000FC910084F185E02D40E00994CF93C82F48
:101EF00061E88FEA94E00E946E0F6C2F8FEA94E005
:101F0000CF910C946E0F8130910519F483E30C94FA
:101F1000760F8230910511F486E6F9CF8330910572
:101F200011F489E9F4CF8430910511F48CECEFCFF2
:101F3000059711F48FEFEBCF08950F931F93CF9375
:101F40008C01FC016483C085C60F6C2F6F700E94EA
:101F50006E0F6C2F62956F706061C801CF911F91F9
:101F60000F910C946E0FFC012781269526952695DE
:101F7000621738F465832385620F6770606B0C9479
:101F80006E0F08951F93CF93DF93EC01142F8E8172
:101F9000681718F4CE010E949D0F612FCE01DF91CA
:101FA000CF911F910C94B30FCF92DF92EF92FF92DB
:101FB0000F931F93CF93DF93EC01F62EC42ED22EF6
:101FC0008F81869586958695081710F00FEF080F7C
:101FD0001D2D011780F0412F6F2DCE010E94C20FE1
:101FE000EF2CCE1430F06F85CE010E940E0FE394DB
:101FF000F8CF1F5FEECF4D2D6F2DCE01DF91CF912A
:102000001F910F91FF90EF90DF90CF900C94C20F33
:102010000F93DC0115962C9115971D96ED91FC916F
:102020001E9700E0309779F03396E491F0E0379610
:1020300083E0F595E7958A95E1F750960C915097D6
:102040000E9F002D1124EFEFE20F0E0F16964C910C
:102050001697415014966C911497CD010E94D40F9D
:102060000F9108952F923F924F925F926F927F92BD
:102070008F929F92AF92BF92CF92DF92EF92FF9298
:102080000F931F93CF93DF9300D000D01F92CDB753
:10209000DEB7FC01258536852115310509F445C1DA
:1020A0009D838C83F9013296649031964491E42E9D
:1020B000F12CF7E0EF0EF11C53E0F594E7945A95FC
:1020C000E1F7E982F901349654913196E49165176C
:1020D00048F08E2F90E0FC01E50FF11D6E171F06F2
:1020E0000CF468C06D3029F5EC81FD818681811189
:1020F0001AC081E090E00F900F900F900F900F901A
:10210000DF91CF911F910F91FF90EF90DF90CF90D3
:10211000BF90AF909F908F907F906F905F904F9007
:102120003F902F90089560E08C819D810E949D0FCB
:10213000E0CF6A3009F0F9C0EC81FD818681882307
:1021400021F060E0CF010E949D0FEC81FD8180892C
:102150008E9DE02C112465816E0D8485882349F0C5
:1021600097819695969596958E2D891B860F1816B4
:102170002CF08C819D810E94B30FBBCFEC81FD813F
:102180002385820F877083879E199583CF010E94D4
:102190000810EC81FD818485813009F0AACF638528
:1021A000660F660F660F6F7362876064CF010E94CF
:1021B0006E0F9FCF89010A5F1F4F651BEC81FD8168
:1021C00071855089759F502D11245B83F9015491BD
:1021D0002F5F3F4FF9012491352F2230310508F050
:1021E00066C06E9CC0016F9C900D1124689FF00129
:1021F000699FF00D11240E0F1F1F512CEC81FD81E2
:10220000F481FA83EC81FD812580862C912CAA240F
:10221000A394B12C312CF9813F1608F084C0412CD5
:10222000EC81FD818089481608F076C0311002C02B
:10223000442041F0EC81FD8145814F5F6A81CF01EF
:102240000E94C20FD12CC12CC61408F058C0F8014E
:10225000EC0DFD1D7490552061F0EA14FB0449F467
:10226000E72DF0E0052C02C0F595E7950A94E2F71A
:102270007E2EEC81FD818089823081F4442009F436
:102280003AC072948FE07822E72DF0E0E25DF54FDE
:102290007490672D8C819D810E940E0F672D8C811B
:1022A0009D810E940E0F8FEFC81AD80ACDCF4770BC
:1022B00028E0522E541A411101C0512CF801612C12
:1022C00030E020E0661631F04491240F311D639414
:1022D0003196F8CF600E712E711CF3016490E29E6E
:1022E000F001E39EF00DF29EF00D11248E0F9F1F62
:1022F000080F191F83CFF72DFF707F2EC5CFD12C6C
:10230000EB81DE1639F060E08C819D810E940E0F1A
:10231000D394F6CF439484CF3394080D191DFFEF67
:10232000AF1ABF0A78CF622D24CF90E080E0E3CED1
:102330000F93CF93DF93EC011B861A8660E40E9413
:102340006E0F0F8106950695069501504E814150FE
:1023500020E060E0CE010E94D40FDF91CF910F9179
:1023600008956FEA8FEA94E00E946E0F81E090E09A
:102370009093180180931701089508958CBD9DBD19
:1023800008951F93CF93DF93EC01162F61E0411165
:1023900001C060E08A890E94790880E591E00E948E
:1023A000BE1160E089890E9479081EBD00000DB44D
:1023B00007FEFDCF8EB561E08989DF91CF911F9136
:1023C0000C947908089590E080E00895CF92DF9210
:1023D000FF920F931F93CF93DF936C0181E0809363
:1023E000220488E68093440410922304109245044A
:1023F00060E089E994E00E94350E0E94280C67E0B5
:1024000088E60E940F0D10928C0380938B0389E95C
:1024100094E00E94EE0D8F77282F30E094E0359500
:1024200027959A95E1F7922F990F990FC22FC91B03
:10243000CC0FC80F89E994E00E94EE0D9C0144E0A6
:10244000359527954A95E1F72F703327922F990FED
:10245000990FD22FD91BDD0FD80F89E994E00E9484
:10246000EE0D9C0154E0359527955A95E1F72F70B4
:102470003327922F990F990F122F191B110F180F35
:1024800089E994E00E94EE0D89E994E00E94EE0D46
:102490009C0164E0359527956A95E1F72F70332705
:1024A000922F990F990F022F091B000F080F89E92E
:1024B00094E00E94EE0D9C0174E0359527957A9585
:1024C000E1F72F703327922F990F990FF22EF91AF7
:1024D000FF0CF80E89E994E00E94EE0D9C01E4E007
:1024E00035952795EA95E1F72F703327922F990FAD
:1024F000990F291B220F820FF6018083F18202833C
:102500001383D483C583C601DF91CF911F910F91AF
:10251000FF90DF90CF900895CF93DF9300D000D04D
:1025200000D0CDB7DEB7CE0101960E94E6118981B9
:1025300090E08053984F9093A7038093A6038A81DD
:1025400090E09093A5038093A4038B8190E09093F7
:10255000A3038093A2038C8190E09093A1038093C6
:10256000A0038D8190E090939F0380939E03269615
:102570000FB6F894DEBF0FBECDBFDF91CF910895A7
:102580000F931F93CF93DF93EC0111E0109322047C
:1025900088E680934404109223041092450460E07E
:1025A00089E994E00E94350E2D810AE0822F602F88
:1025B0000E94502D682F660F680F660F620F89E921
:1025C00094E00E94350E2C81822F602F0E94502DA6
:1025D000682F660F680F660F620F89E994E00E940A
:1025E000350E2B81822F602F0E94502D682F660F91
:1025F000680F660F620F89E994E00E94350E60E073
:1026000089E994E00E94350E2A81822F602F0E9472
:10261000502D682F660F680F660F620F89E994E0EE
:102620000E94350E2981822F602F0E94502D682F25
:10263000660F680F660F620F89E994E00E94350EFD
:102640002881822F602F0E94502D682F660F680FFF
:10265000660F620F89E994E00E94350E0E94280CF3
:102660001093220410922304109245046FE089E92C
:1026700094E00E94350E0E94280C61E088E60E94DA
:102680000F0D10928C0380938B0389E994E00E94D4
:10269000EE0DC82F109322041092230410924504CB
:1026A0006FE089E994E00E94350E6C2F6F7789E91D
:1026B00094E00E94350EDF91CF911F910F910C9401
:1026C000280CFB0101900020E9F73197AF01461B70
:1026D000570BDC01ED91FC910280F381E02D099410
:1026E0008F929F92AF92BF92EF92FF920F931F93A0
:1026F000CF93DF93CDB7DEB7A1970FB6F894DEBFC7
:102700000FBECDBF7C01FA01CB0119A2223008F423
:102710002AE08E010F5D1F4F822E912CB12CA12C2F
:10272000BF01A50194010E94A92BF901CA016A30D9
:102730000CF5605DD8016E938D01232B242B252B86
:1027400079F790E080E0109721F0BD01C7010E9469
:102750006113A1960FB6F894DEBF0FBECDBFDF9117
:10276000CF911F910F91FF90EF90BF90AF909F90EE
:102770008F900895695CDECFCF92DF92EF92FF9247
:102780000F931F93CF93DF936B01770FEE08FF0832
:10279000F7FE1BC0EC016DE20E942B078C01442761
:1027A0005527BA014C195D096E097F092AE0CE014F
:1027B0000E947013800F911FDF91CF911F910F9195
:1027C000FF90EF90DF90CF9008952AE0B701A60127
:1027D000DF91CF911F910F91FF90EF90DF90CF90FD
:1027E0000C9470130F931F93CF93DF938C01D0E061
:1027F000C0E06115710519F00E946113EC0166EEED
:1028000071E0C8010E9461138C0F9D1FDF91CF9171
:102810001F910F9108956115710511F00C946113CA
:1028200090E080E00895CF92DF92EF92FF920F93B5
:102830001F93CF93DF938C016B017A01D0E0C0E04E
:10284000E114F104C1F0D801ED91FC910084F1850F
:10285000E02DC8010995892BD1F1D801ED91FC91AA
:102860000284F385E02DC80109958D3061F38A302B
:1028700021F5209741F3F601EC0FFD1F1082F801BE
:102880008585882381F0209771F0B60189E494E072
:102890000E940B14C034D10530F466EE71E089E477
:1028A00094E00E946113CE01DF91CF911F910F91AF
:1028B000FF90EF90DF90CF900895F601EC0FFD1F91
:1028C00080832196C034D10508F4BDCFD4CFB1E0C8
:1028D000EB1AF10881F261E070E080E090E00E9484
:1028E000CB0AAECF8F929F92AF92BF92CF92DF92E0
:1028F000EF92FF920F931F93CF93DF935C014B01F5
:102900006A0179018FEA94E00E94981181E0809336
:10291000BF0483E498E00E941E0640E060E08FEA76
:1029200094E00E94C20F6BE771E08FEA94E00E948E
:102930000B1440E065E78FEA94E00E94C20F6FE756
:1029400071E08FEA94E00E940B14F50101900020E1
:10295000E9F7E501CE1BDF0B6696D695C79510E02B
:1029600000E00C171D074CF462E871E08FEA94E078
:102970000E940B140F5F1F4FF4CFB5018FEA94E054
:102980000E940B1441E060E08FEA94E00E94C20FC5
:102990008401D0E0C0E064E871E0EC16FD0611F0BF
:1029A00062E871E08FEA94E00E940B14F8016191F3
:1029B00071918F018FEA94E00E94F2132196CC1658
:1029C000DD0649F747E065E78FEA94E00E94C20F11
:1029D00066E871E08FEA94E00E940B1464E670E010
:1029E00080E090E0DF91CF911F910F91FF90EF90E9
:1029F000DF90CF90BF90AF909F908F900C94CB0AB8
:102A0000EF92FF920F931F93CF93DF93CDB7DEB773
:102A1000AA970FB6F894DEBF0FBECDBF8091AE036C
:102A20009091AF039E012F5F3F4F790169E871E0FC
:102A3000892B11F06BE971E0C7010E94832F80910F
:102A40009C0390919D038E010D5E1F4F6CEA71E017
:102A5000892B11F06EEB71E0C8010E94832F8FEC7F
:102A600091E09EA38DA3F8A6EFA21AA709A783E081
:102A700090E09093A9038093A80321E030E0309385
:102A8000AB032093AA039093B2038093B1032091E8
:102A9000AC033091AD0343E050E0BE016B5D7F4F6E
:102AA00084ED91E00E947214AA960FB6F894DEBFEE
:102AB0000FBECDBFDF91CF911F910F91FF90EF908F
:102AC0000895CF93DF93EC018091A9049091AA041B
:102AD000009759F02091AB043091AC042C173D07BE
:102AE00020F081E0DF91CF910895BE016F5F7F4FAD
:102AF0000E949B2E009789F09093AA048093A904CA
:102B0000D093AC04C093AB042091AD043091AE04DB
:102B1000232B39F7FC011082E4CF80E0E3CF0E9441
:102B2000582F85ED8093BC0080911E0490911F0466
:102B3000A0912004B09121040796A11DB11D23E0AE
:102B4000B695A795979587952A95D1F72091BC00C2
:102B500024FD03C010921C04089540911E0450915E
:102B60001F046091200470912104452B462B472BB4
:102B700069F30097A105B10541F025E32A95F1F726
:102B800000000197A109B109E1CF80911D040C94C7
:102B9000070CCF93DF93EC012E813F818A819B81CB
:102BA0002817390719F48D81882329F14C8150E0C9
:102BB00028853985429FC001439F900D529F900DFB
:102BC000112428813981820F931F0E946A2F8885E2
:102BD00099852A813B810196B9010E945C2D9987D4
:102BE00088878E819F812817390741F488859985C8
:102BF0009B878A8781E0DF91CF9108958E819F81A5
:102C000001969F838E83F6CFCF92DF92EF92FF9251
:102C10000F931F93CF93DF931F92CDB7DEB7FC01C5
:102C2000348521E0231B248721E3231B29838C0186
:102C30000B541F4FBE016F5F7F4FC8010E94C91523
:102C400086E0E82EF12C92EEC92E91E0D92EB60145
:102C5000C8010E94C915882341F0F8018481C80E7B
:102C6000D11CF1E0EF1AF10891F70F90DF91CF91AD
:102C70001F910F91FF90EF90DF90CF9008958F926A
:102C80009F92AF92BF92CF92DF92EF92FF920F93FB
:102C90001F93CF93DF93CDB7DEB76C970FB6F89441
:102CA000DEBF0FBECDBF7C01B62EA72E6A01122F4C
:102CB000011107C0DC01ED91FC910680F781E02D48
:102CC000099580E18983AB82BA828C818078912FCB
:102CD0009F77892B8C83103109F000E08C8100FBF9
:102CE00087F98C83C114D10449F0112339F0412FA5
:102CF00050E0B601CE0105960E946A2FF701EF5908
:102D0000FF4F80818F3F31F48091A5049091A604FC
:102D10000E94BE116701BEE5CB0ED11C60E0F6013A
:102D200080810E947908D70114968D909D90AD9076
:102D3000BC9017970E94B60B6D8B7E8B8F8B988FF4
:102D4000898E9A8EAB8EBC8E83ECA82EB12C6981B5
:102D5000C7010E94640E8E3FA1F4CE0145960E94E9
:102D6000DD0E81110EC061E0F60180810E947908BC
:102D7000C5010197F1F760E0D6018C910E947908B6
:102D8000E6CFCE0145960E94DD0E01E0082751F006
:102D9000412F50E04D5F5F4FBE016E5F7F4FC70117
:102DA0000E94C20E61E0F60180810E947908802FA6
:102DB0006C960FB6F894DEBF0FBECDBFDF91CF91FA
:102DC0001F910F91FF90EF90DF90CF90BF90AF9049
:102DD0009F908F9008952F923F924F925F926F92A3
:102DE0007F928F929F92AF92BF92CF92DF92EF929B
:102DF000FF920F931F93CF93DF93CDB7DEB7A297C8
:102E00000FB6F894DEBF0FBECDBF8C013C0185EB41
:102E1000680E711C94E1292EFE013196FE8FED8F14
:102E2000C801815A9F4F98A38F8FF801EF59FF4F28
:102E3000FAA3E9A36801FEE5CF0ED11C23EC422ED4
:102E4000512CF3012681378182819381821B930B60
:102E5000409708F4F5C0ED8DFE8D822D11928A9574
:102E6000E9F7F80184809580A680B780880C991CCA
:102E7000AA1CBB1C0E94B60B6D8B7E8B8F8B988F10
:102E8000898E9A8EAB8EBC8EEF8DF8A180810E94C8
:102E90005008892B09F5CE0145960E94DD0E882346
:102EA00099F3312C832DA2960FB6F894DEBF0FBE96
:102EB000CDBFDF91CF911F910F91FF90EF90DF90E9
:102EC000CF90BF90AF909F908F907F906F905F90CA
:102ED0004F903F902F900895E9A1FAA180818F3FF4
:102EE00031F48091A5049091A6040E94BE1160E087
:102EF000F60180810E947908F80184809580A6807F
:102F0000B7800E94B60B6D8B7E8B8F8B988F898ECE
:102F10009A8EAB8EBC8ECE0145960E94DD0E81113D
:102F20001BC06FEFC8010E94640E89838E3F71F44D
:102F300061E0F60180810E947908C2010197F1F7F2
:102F400060E0F60180810E94790802C08F3F81F322
:102F500089818E5F8230F8F28981803271F0803809
:102F600061F0CE0145960E94DD0E811106C06FEF23
:102F7000C8010E94640E8983EFCFCE0145960E945E
:102F8000DD0E882359F1312C61E0F60180810E9429
:102F90007908332009F485CF8C818F77D9F0E82E1A
:102FA000F12CE114F104B1F04E01F5E08F0E911C0B
:102FB000B12CA12CB401C3010E94C915882351F082
:102FC0008FEFA81AB80AF3018481880E911CAE1401
:102FD000BF0480F38C8187FD34CF64CF43E050E0A1
:102FE0006FEF70E0CE0102960E94732F43E050E035
:102FF000BE016E5F7F4FC8010E94C20E8A819B8115
:103000002981203809F4BFCF9A50039708F0BBCF2D
:103010008C818F77813108F0B6CFE82EF12CA70193
:103020006FEF70E0CE0105960E94732FA701BE01DD
:103030006B5F7F4FC8010E94C20E33243394A4CF2C
:10304000332433942FCFCF92DF92EF92FF920F93DE
:10305000CF93DF931F92CDB7DEB76C017C0185EB78
:10306000E80EF11CF70186819781892B81F4F60126
:103070008485882351F1E15AFF4F80810E945008D6
:10308000892B61F5F70186819781892B59F144815C
:1030900050E022853385429FC001439F900D529F8F
:1030A000900D112460817181680F791FCE01019606
:1030B0000E946A2F898190E00F90DF91CF910F914C
:1030C000FF90EF90DF90CF90089500E020E050E077
:1030D00040E062E07AE0C6010E943F16C6010E940D
:1030E000EB16D0CF8FEF9FEFE7CFCF92DF92EF922B
:1030F000FF920F93CF93DF931F92CDB7DEB76C0192
:103100007C0185EBE80EF11CF70186819781892B04
:1031100089F186819781892B11F1448150E02285C4
:103120003385429FC001439F900D529F900D112403
:1031300060817181680F791FCE0101960E946A2F0C
:10314000F701828593850196628173810E945C2DCF
:103150009387828786819781019797838683898168
:1031600090E00F90DF91CF910F91FF90EF90DF9063
:10317000CF900895F601848581110DC000E020E014
:1031800050E040E062E07AE0C6010E943F16C601CE
:103190000E94EB1607C0E15AFF4F80810E94500841
:1031A000892BA9F7F70186819781892B09F0B5CF83
:1031B0008FEF9FEFD6CFEF92FF920F93CF93DF93D6
:1031C0007C0125EBE20EF11CF70126813781232BD0
:1031D00041F086819781DF91CF910F91FF90EF9021
:1031E0000895FC01248521110DC0EC0100E050E0A0
:1031F00040E062E07AE00E943F16CE010E94EB16AA
:10320000F701E7CF815A9F4FFC018081DF91CF9179
:103210000F91FF90EF900C9450088F929F92AF9275
:10322000BF92CF92DF92EF92FF920F93CF93DF93F3
:103230005C01EB016A01DC011C968C918823A1F0F2
:103240007B01E40EF51ED12CC12CCE15DF0521F13A
:103250006991D501ED91FC910190F081E02DC501BE
:103260000995C80ED91EF1CF4330510510F143E046
:1032700050E069EE71E0CE010E945D2F892BC9F408
:10328000E3E0CE16D10429F08B818D3011F08A3025
:1032900081F4C5010E940416C601DF91CF910F9100
:1032A000FF90EF90DF90CF90BF90AF909F908F9066
:1032B00008957601E114F104B9F04701F1E1EF1648
:1032C000F10418F080E1882E912CE818F90801E04B
:1032D00009F400E0282DAE0161E07AE0C5010E940A
:1032E0003F16C80DD91DE6CFC5010E94EB16D4CFFD
:1032F000AF92BF92CF92DF92EF92FF920F931F9304
:10330000CF93DF931F92CDB7DEB77C016983FC01B9
:10331000848581111BC000E021E0AE014F5F5F4F4B
:1033200061E07AE0C7010E943F16C7010E94EB16D8
:1033300081E090E00F90DF91CF911F910F91FF906E
:10334000EF90DF90CF90BF90AF9008958981670193
:10335000F4E7CF0ED11CF60110818D3011F08A30C8
:1033600039F5112391F05701F4E6AF0EB11C43E09B
:1033700050E069EE71E0C5010E945D2F892B79F460
:10338000C7010E940416F6011082F7018585882383
:1033900079F2698189E494E00E942B07C9CF00E0AB
:1033A000212FA50160E07AE0C7010E943F16EBCF14
:1033B000103199F401E020E15701F4E6AF0EB11CA1
:1033C000A50160E07AE0C7010E943F168981F501FE
:1033D000808381E0F6018083D8CF91E0910F9083C4
:1033E000F701E10FF11DEC59FF4FF5CF1F93CF937C
:1033F000DF93CDB7DEB7C154D1090FB6F894DEBF65
:103400000FBECDBF1091CE04111103C021E0209357
:10341000CE04BC0182EC94E00E94320766EE71E0BB
:1034200082EC94E00E9461138091CF04882331F0F4
:103430006BEC7BE089E494E00E9432074091C60483
:103440005091C704BE016F5F7F4F82EC94E00E94F1
:103450001314892B59F16AED72E0CE0101960E9496
:103460007A2F892B81F06DEE71E0CE0101960E94DA
:103470007A2F892BD9F0BE016F5F7F4F80ED94E0EA
:103480000E94832FDBCF81E0111105C09091CE0403
:1034900091111092CE04CF5BDF4F0FB6F894DEBFD0
:1034A0000FBECDBFDF91CF911F91089580E0ECCF8B
:1034B000CF92DF92EF92FF920F931F93CF93DF9300
:1034C000CDB7DEB7AC970FB6F894DEBF0FBECDBF59
:1034D00080919A0390919B039E012F5F3F4F69015A
:1034E00063EF71E0019711F065E072E0C6010E94A0
:1034F000832F809197038F93809196038F9386E11A
:1035000092E09F938F938E010D5E1F4F1F930F9339
:103510000E948A2F809199038F93809198038F93B3
:1035200080E292E09F938F937E013DE1E30EF11CD8
:10353000FF92EF920E948A2F8FEC91E09CA78BA7BD
:10354000DEA2CDA2F8A6EFA21AA709A784E090E018
:103550009093B2038093B10321E030E03093AB034A
:103560002093AA039093A9038093A8032091AC030E
:103570003091AD0344E050E0BE016B5D7F4F88E2C7
:1035800092E00E9472140FB6F894DEBF0FBECDBF5A
:10359000AC960FB6F894DEBF0FBECDBFDF91CF91D2
:1035A0001F910F91FF90EF90DF90CF900895CF93F0
:1035B000DF93CDB7DEB72E970FB6F894DEBF0FBE00
:1035C000CDBF8091A7038F938091A6038F938EE246
:1035D00092E09F938F9387E293E09F938F930E9453
:1035E0008A2F8091A5038F938091A4038F9388E302
:1035F00092E09F938F938DE193E09F938F930E942E
:103600008A2F8091A3038F938091A2038F9384E4E8
:1036100092E09F938F9383E193E09F938F930E9417
:103620008A2F8091A1038F938091A0038F9380E5CF
:1036300092E09F938F9389E093E09F938F930E94F2
:103640008A2F80919F038F9380919E038F938CE5A7
:1036500092E09F938F938FEF92E09F938F930E94BE
:103660008A2F8EE0E0E2F1E0DE01119601900D92EA
:103670008A95E1F787E090E09093A9038093A803EF
:1036800081E090E09093AB038093AA0382E090E006
:103690009093B2038093B1032091AC033091AD03BA
:1036A00047E050E0BE016F5F7F4F88E692E00E94E6
:1036B00072140FB6F894DEBF0FBECDBF2E960FB6B4
:1036C000F894DEBF0FBECDBFDF91CF9108950F9369
:1036D0001F93CF93DF93CDB7DEB769970FB6F894FA
:1036E000DEBF0FBECDBF809116018F938091150173
:1036F0008F938DE792E09F938F938E010F5F1F4F03
:103700001F930F930E948A2F8FEC91E0998B888BE7
:1037100088E692E09B8B8A8B8CE892E09D8B8C8B69
:1037200088E292E0998F888F1F8B0E8B81E090E06A
:103730009093B2038093B10325E030E03093A90366
:103740002093A8039093AB038093AA032091AC032A
:103750003091AD0345E050E0BE01605F7F4F87E9E7
:1037600092E00E9472140F900F900F900F900F90A4
:103770000F9069960FB6F894DEBF0FBECDBFDF91F4
:10378000CF911F910F910895CF92DF92EF92FF9208
:10379000CF93DF9300D000D000D0CDB7DEB710922A
:1037A000B2031092B103CE0101960E94E61181E0AE
:1037B0008093BF0483E498E00E941E0640E068E224
:1037C0008FEA94E00E94C20F4B8150E070E060E00D
:1037D0002AE08FEA94E00E94701361EA72E08FEAB7
:1037E00094E00E940B144A8150E070E060E02AE00F
:1037F0008FEA94E00E94701361EA72E08FEA94E02D
:103800000E940B14498150E04053584F052E000C84
:10381000660B770B2AE08FEA94E00E94701380E039
:1038200090E0A0E0BFE38093FB029093FC02A093A2
:10383000FD02B093FE0261E084E00E94790862E339
:1038400070E080E090E00E94CB0AE0EDF0E0E491CF
:1038500090917B008E2F880F880F80729F7D892B1F
:1038600080937B00E770E064E0937C0080917A00B5
:10387000806480937A0080917A0086FDFCCF8091ED
:10388000780060917900762F682F072E000C880B46
:10389000990B0E94B02A20E030E040E85AE30E94F1
:1038A000EB2A26E636E646E550E40E94EB2A209114
:1038B000FB023091FC024091FD025091FE020E94F9
:1038C000A82C6B017C01C092F702D092F802E09222
:1038D000F902F092FA0262E370E080E090E00E9468
:1038E000CB0A60E084E00E9479082AE939E949E5D9
:1038F00050E4C701B6010E943B2C2FE632E143E0C1
:103900005CE30E94A82C0E941A2D653671050CF00C
:1039100083C07093F6026093F50281ED90E00E94FF
:103920001E0682E08093BF0442E06AE08FEA94E0E2
:103930000E94C20F2E819D818C8120FF74C01F9236
:103940009F931F928F9383EA92E09F938F938FEEC2
:1039500092E09F938F930E948A2F0FB6F894DEBF58
:103960000FBECDBF6FEE72E08FEA94E00E940B14A1
:1039700081E08093BF0483E498E00E941E0647E044
:1039800060E08FEA94E00E94C20F67EB72E08FEA7A
:1039900094E00E940B146091F5027091F6028FEA98
:1039A00094E00E94BC136DEB72E08FEA94E00E94F9
:1039B0000B148091B003882309F443C047E060E50D
:1039C0008FEA94E00E94C20F6FEB72E08FEA94E0FE
:1039D0000E940B1480918D0347E069E6882351F122
:1039E0008FEA94E00E94C20F63EC72E08FEA94E0E9
:1039F0000E940B1480910001811110920001269603
:103A00000FB6F894DEBF0FBECDBFDF91CF91FF9010
:103A1000EF90DF90CF90089584E690E09093F602C7
:103A20008093F5027ACF1F929F931F928F938DEA16
:103A300092E08BCF8FEA94E00E94C20F68EC72E0B4
:103A4000D5CF809100018111DACF47E060E58FEAA0
:103A500094E00E94C20F8FEA94E00E940810CFCF3A
:103A60001F920F920FB60F9211248F939F93809104
:103A7000E1009091E100937F9093E10083FF0FC0FC
:103A80001092E90091E09093EB001092EC0092E329
:103A90009093ED001092480498E09093F00082FF1C
:103AA00022C093E09093E9009091F200992319F0DD
:103AB0009AE39093E80090918603992341F09091C6
:103AC0008603915090938603911101C05D9A909165
:103AD000BF03992341F09091BF0391509093BF038E
:103AE000911101C0289A84FF18C08091E2008E7E57
:103AF00081608093E2008091E1008F7E8093E100FD
:103B0000809146048E7E8061809346049F918F91C0
:103B10000F900FBE0F901F90189580FFF7CF8091E8
:103B2000E2008E7E80618093E2008091E1008E7ED3
:103B30008093E100809146048E7E8160E5CF1F92E4
:103B40000F920FB60F921124CF92DF92EF92FF9255
:103B50000F931F932F933F934F935F936F937F9395
:103B60008F939F93AF93BF93EF93FF93CF93DF9385
:103B7000CDB7DEB76C97DEBFCDBF1092E900809164
:103B8000E80083FF25C068E0CE0145960E941E072D
:103B900082EF8093E8008D8987FF39C09091E8001B
:103BA00090FFFCCF982F907609F034C19E894F8901
:103BB000588D2F89F88C911131C0803861F5809132
:103BC00047048093F1001092F1008EEF8093E8009B
:103BD0006C960FB6F894DEBF0FBECDBFDF91CF91CC
:103BE000FF91EF91BF91AF919F918F917F916F91D5
:103BF0005F914F913F912F911F910F91FF90EF9007
:103C0000DF90CF900F900FBE0F901F9018959EEFF2
:103C10009093E800C7CF1092F100D5CF913059F4BE
:103C20008111D3CF4130510581F6809147048D7FBA
:103C300080934704CACF933049F48111C6CF4130F5
:103C4000510519F6809147048260F2CF953041F416
:103C50008091E80080FFFCCF20682093E300B5CF7F
:103C6000963009F0A9C00B8D1C8D22E01092E9005E
:103C70001092840310928303F2122EC010928203DA
:103C8000109281030E94ED061F8299E09983FA82C7
:103C900091E09E8390EA98879AEF99872091830319
:103CA00030918403275F3F4F3C832B838D83109299
:103CB000E90010928403109283031093820300930F
:103CC000810349E050E0BE016F5F7F4F80E00E94BA
:103CD000C7060E94ED0679CF1093820300938103FB
:103CE0000E946B06DC0112960D911C9101151105C5
:103CF00009F451C1D801ED91FC910480F581E02DCA
:103D0000BE016B5E7F4FC8010995009709F03EC167
:103D1000F80100851185EACFF3E0FF120EC08F890C
:103D2000882309F440C0823061F440E860E18EEB02
:103D30009AE00E949F21811148CF81E28093EB009D
:103D400047CF813029F440E86BE082EB9AE0F1CF75
:103D5000833099F70E946B06DC011296ED90FC907F
:103D60008E010F5F1F4F6801E114F10479F0D70154
:103D7000ED91FC910680F781E02DB801C70109950E
:103D8000080F111DF701E084F184EECFD8011C92D9
:103D9000F60101900020E9F73197BF016C197D0908
:103DA00040E0C601C6CF6CE97AE0FB01449150E0E7
:103DB00080E80E94C70609CF973009F4BECF98303B
:103DC00021F481E08093F10000CF993009F0FDCE1D
:103DD000837009F0B2CFEFE2F1E081E031E096E3E9
:103DE0002191222371F08093E9003093EB00DF01F1
:103DF00011972C912093EC009093ED008F5F87300A
:103E000079F78EE78093EA001092EA008F89809319
:103E10004804DBCE8B8D9C8D1092E90010928403B8
:103E2000109283039093820380938103898D811183
:103E300092C08E899D89913A49F4813209F07DCFF3
:103E400047E050E065E071E080E0B3CF913209F0E7
:103E500074CF833269F48F89988DB0E0A0E08093AD
:103E6000010190930201A0930301B0930401ADCE30
:103E7000803269F48091E80082FFFCCF67E085E042
:103E800091E00E941E078BEF8093E8009ECE823265
:103E900009F09BCE8F8980930C01EEEFFFE78591AF
:103EA00094918B3F9C4D51F1E0E0F8E08091050149
:103EB00090910601A0910701B0910801803B9440C8
:103EC000A105B105F1F480910C0180FD1AC0EE3F0F
:103ED0008AE0F80789F587E797E7918380838091E7
:103EE00060008093850388E19BE00FB6F894A89565
:103EF000809360000FBE9093600067CEEEEFFAE013
:103F0000D5CF808191818737974709F05ECEA895FC
:103F10008091600088618093600080918503809328
:103F20006000EE3F2AE0F20789F08091FE0A90914E
:103F3000FF0A9183808349CE8081918187379807DA
:103F400051F29093FF0A8093FE0AC5CF1092FF0AA8
:103F50001092FE0A3ACE0E946B06DC0112960D9179
:103F60001C910115110509F4E8CED801ED91FC91E1
:103F70000190F081E02DBE016B5E7F4FC801099575
:103F8000811123CEF80100851185EBCF1816190693
:103F90000CF41BCED2CEF1E0FF12BECE60EA7AE086
:103FA00004CF1F920F920FB60F9211248F939F93FD
:103FB000AF93BF93EF93FF938091CA039091CB038C
:103FC000A091CC03B091CD03892B8A2B8B2BA1F12F
:103FD0009091C103E091C203F091C30380818927CE
:103FE00080838091CA039091CB03A091CC03B091C0
:103FF000CD03181619061A061B069CF48091CA03F5
:104000009091CB03A091CC03B091CD030197A1096E
:10401000B1098093CA039093CB03A093CC03B093D0
:10402000CD03FF91EF91BF91AF919F918F910F9031
:104030000FBE0F901F901895809171008D7F809317
:1040400071008091C103E091C203F091C30390819C
:10405000809589238083E5CF1F920F920FB60F9230
:1040600011242F933F938F939F93AF93BF9380918E
:10407000790390917A03A0917B03B0917C033091F6
:10408000780323E0230F2D3758F50196A11DB11DAC
:10409000209378038093790390937A03A0937B0312
:1040A000B0937C0380917D0390917E03A0917F0368
:1040B000B09180030196A11DB11D80937D03909363
:1040C0007E03A0937F03B0938003BF91AF919F9134
:1040D0008F913F912F910F900FBE0F901F901895C9
:1040E00026E8230F0296A11DB11DD2CF1F920F9279
:1040F0000FB60F9211242F933F934F935F936F93BB
:104100007F938F939F93AF93BF93EF93FF93809190
:10411000B900887F803609F44AC0F0F5883209F486
:10412000A7C018F5803109F49BC0B8F4882309F4BE
:10413000F9C0883009F494C0FF91EF91BF91AF911D
:104140009F918F917F916F915F914F913F912F91AF
:104150000F900FBE0F901F901895883109F488C0FA
:10416000803251F780931A0414C0803409F49DC042
:1041700040F48033B9F38833F9F680931A0485EC60
:10418000B0C0803509F485C0883509F496C08834FC
:1041900099F60E949115D0CF883909F48CC038F572
:1041A000883729F050F4883611F0803729F683E0FB
:1041B00080931C041092770357C0883809F47BC0A1
:1041C000803919F0803809F0B7CF809177038032B9
:1041D00008F071C0E091770381E08E0F8093770340
:1041E0008091BB00F0E0E95AFC4F80833DC0803BEA
:1041F00039F0E0F4803A09F479C0883A09F09CCFAC
:1042000084E080931C041092560310925503E091B1
:104210008903F0918A0309958091550381110FC09C
:1042200081E0809355031092350309C0803C09F466
:10423000A6CF883C09F4A3CF883B09F07DCFE0915D
:10424000560381E08E0F80935603F0E0EB5CFC4F49
:1042500080818093BB00909156038091550329C0C3
:104260008091F7038093BB0085EC8093BC0064CF02
:104270009091190480911804981758F5E091190449
:1042800081E08E0F80931904F0E0E850FC4F8081AC
:10429000E9CFE091190481E08E0F80931904809199
:1042A000BB00F0E0E850FC4F8083909119048091AE
:1042B00018049817C8F285E8D8CFE091190481E076
:1042C0008E0F809319048091BB00F0E0E850FC4F02
:1042D000808380911B0481115CCF81E08093F60381
:1042E00084EA8093BC0010921C0426CF85EC809356
:1042F000BC0010921C0480917703803230F4E0916E
:104300007703F0E0E95AFC4F10826091770370E088
:10431000E0918703F091880387E593E00995109277
:1043200077030ACF10921A0434CF1F920F920FB660
:104330000F9211240F900FBE0F901F901895EF92BF
:10434000FF920F931F93CF93DF93F82E192FE62E32
:10435000042F81E0860F880F0E94990683E00E9457
:104360009906CF2DD12FEC0EFD2EF11CCE15DF05B9
:10437000B9F007FF13C0FE0184910E949906182F1F
:1043800080E00E949906812321968111EFCFDF9171
:10439000CF911F910F91FF90EF9008958881EDCFFD
:1043A00081E0F5CF10924C0410924B0448EE53E09C
:1043B00060E070E040934D0450934E0460934F04CE
:1043C0007093500489E391E090934A0480934904E8
:1043D0008FEF9FEF909356048093550410929C04A6
:1043E00010929B0440939D0450939E0460939F04FD
:1043F0007093A0042BE431E030939A042093990445
:1044000020E52093A5041092A6049093A80480931D
:10441000A7040E94B60B6093830570938405809374
:104420008505909386051092C5041092C40481E01E
:104430008093CE041092CF044AEF50E060E070E029
:104440004093C6045093C7046093C8047093C90492
:104450001092120510921305109214051092150572
:104460001092170510921605109219051092180552
:1044700010921B0510921A0510921D0510921C0532
:1044800010921F0510921E052BE631E03093C304F5
:104490002093C20427E335E0309378052093770515
:1044A00020E430E030937A052093790580937B05F2
:1044B00080937C05109282051092810510928005F0
:1044C00010927F0510927E0510927D0593E09093E7
:1044D000110594E1909320051092210593E19093AA
:1044E00022059FEF90932305909324059093250533
:1044F000109236051092B2041092B1041092BB04CF
:104500001092BD041092BC041092BE048093BF04AC
:104510008DE591E09093B0048093AF041092AA04CB
:104520001092A9041092AC041092AB041092AE0445
:104530001092AD0490E080E00E9461152091A904E2
:104540003091AA04811113C02115310519F0C90158
:104550000E94122E1092AA041092A9041092AE0486
:104560001092AD041092AC041092AB040895109216
:10457000AE041092AD0468EE71E0C9010C94832F73
:10458000CF93DF93CDB7DEB761970FB6F894DEBF58
:104590000FBECDBF789484B5826084BD84B5816040
:1045A00084BD85B5826085BD85B5816085BD8091FE
:1045B0006E00816080936E00109281008091810076
:1045C000826080938100809181008160809381006E
:1045D0008091800081608093800080919100826052
:1045E00080939100809191008160809391008091EF
:1045F00090008160809390008091C10084608093DE
:10460000C1008091C10082608093C1008091C1008F
:1046100081608093C1008091C30081608093C3005A
:104620008091C00082608093C0008091C200816050
:104630008093C20080917A00846080937A00809198
:104640007A00826080937A0080917A008160809302
:104650007A0080917A00806880937A000E94FE0A36
:1046600062E088E00E94D10862E08BE00E94D108FD
:1046700062E08AE00E94D10862E085E00E94D108F1
:1046800061E08DE00E94D10861E086E00E94D108DF
:1046900060E08DE00E94790860E086E00E94790881
:1046A00061E086E10E94D10860E086E10E9479081D
:1046B0006AE070E080E090E00E94CB0A61E086E171
:1046C0000E9479086AE070E080E090E00E94CB0AE6
:1046D00087E18093C00485E18093C10461E087E1B4
:1046E0000E94D10861E08091C1040E94D1080E941B
:1046F000250F1092B3041092B404EFECFAE0859108
:104700009491E82EE1EDFAE0F490E2EDFAE0E49124
:10471000E093B504E3EDFAE0E491E093B604E4ED50
:10472000FAE0E491E093B7048C01802F8E198F1585
:1047300048F4F80164918FEA94E00E946E0F0F5FD5
:104740001F4FF3CF8FEA94E00E9498118FEA94E014
:104750000E94981110928C0310928B0310922304E4
:10476000109245040E94E90B87E996E090938A0332
:104770008093890388E996E0909388038093870368
:104780004BE050E06EED7AE0CE0101960E94A52A42
:10479000CE010A960E94010F8C87E981E154E33132
:1047A00020F50E2E000CFF0BE852FC4D0C94702DE2
:1047B0001B25F523F5232F25F5231925F523F523AF
:1047C000F523EB23F523F52322252D252B25F52392
:1047D000F523F52329258A81813609F426C18B81A9
:1047E0008E3609F024C186E08D87CE0105960E94A1
:1047F000010F8E8748E050E065ED7AE0CE0101962A
:104800000E94A52ACE0101960E94010F8F87CE013A
:1048100004960E94010F888BCE0107960E94010F1B
:10482000898BCE010C960E94C01280911501909147
:1048300016010E94830F0E94C41B0E94B60B609356
:10484000830570938405809385059093860581E0A8
:104850008093CF0460E0809121050E94D10861E03F
:10486000809120050E94D10861E0809120050E947E
:104870007908809123058F3F09F0F3C00E94250F2E
:1048800000E020E050E040E06FEE7EEB82EC94E050
:104890000E943F168091220587FD18C061E00E94AA
:1048A000D10861E0809122050E94790860E0809142
:1048B00022050E9479086AE070E080E090E00E94A2
:1048C000CB0A61E0809122050E9479080E94B60B14
:1048D000609312057093130580931405909315054A
:1048E00068EE73E080E090E00E94CB0A85E09BE0F8
:1048F0000E94F6198091CE0481111092CE0482EFAD
:104900009AE00E94F61915E08EEE9AE00E94F619E0
:104910008111BAC01150C1F762E370E080E090E00D
:104920000E94CB0A8091CE04813019F081E08093FF
:10493000CE0462E370E080E090E00E94CB0A15E0D4
:104940008AEE9AE00E94F61981119EC01150C1F7BB
:104950008091D80080618093D80050E5852E53EC7B
:10496000952EA12CB12CEE24E394F12C70E0C72EEF
:1049700070E0D72EE0E02E2EE0E03E2E0E94B60B37
:1049800000918E0310918F03209190033091910339
:104990002B013C01401A510A620A730A93018201F9
:1049A000033311052105310508F160938E037093DF
:1049B0008F03809390039093910320910D01309188
:1049C0000E0180910F0190911001820F931F90931F
:1049D000100180930F010B978237910538F03195C4
:1049E0002195310930930E0120930D018091D9005A
:1049F00081708093B00385E00E94500821E0009709
:104A000009F020E020938D03892B09F0BCC20091AE
:104A10000F011091100161E086E00E94D10801159C
:104A2000110509F04EC060E050C081E0DDCE87E0A6
:104A3000DBCE82E0D9CE8B81823711F484E0D4CEF4
:104A400088E0D2CE8B81823711F483E0CDCE85E031
:104A5000CBCE89E0C9CE8AE0C7CE8BE0C5CE8CE054
:104A6000C3CE61E00E94D10860E0809123050E94DE
:104A7000790860E0809125050E94D10861E080916D
:104A800024050E94D108FCCE0E94B60B609312054B
:104A900070931305809314059093150568EE73E0E9
:104AA00080E090E00E94CB0A10927E0510927D0576
:104AB0001092800510927F05109282051092810558
:104AC00047CF0F3F110529F461E086E00E94790885
:104AD00020C0E5E2FBE08491EFEFE80FEF3008F053
:104AE0004DC2F0E0EA58FA4D0C94702D85255B27F5
:104AF00060276A277427BE27BE27BE277E27882700
:104B000092279C27A927BE27B12784B5806884BD3A
:104B100007BD8091B1039091B203892B11F40E94DB
:104B2000C41BCE0101960E94E61100919C031091D6
:104B30009D0310161106DCF58D81811122C08E8136
:104B400081111FC02801012E000C66087708B301EF
:104B5000A20180ED97E00E940D096CE271E080E017
:104B600090E00E94CB0AB301A20180ED97E00E9481
:104B70000D0960E273E080E090E00E94CB0A0E94A1
:104B8000A7088D818E3199F48E81811110C0A80102
:104B9000110F660B770B80ED97E00E940D0960E224
:104BA00073E080E090E00E94CB0A0E94A708809109
:104BB0009A0390919B0381309105A9F44C81209137
:104BC0009803309199034217130649F44D812091BF
:104BD0009603309197034217130609F4D9C1109236
:104BE0009503109294038091B1039091B20318162B
:104BF00019060CF0D2C18092110190921201A0927C
:104C00001301B09214010E94B60B0091830510911C
:104C100084052091850530918605601B710B820B00
:104C2000930B009111011091120120911301309109
:104C30001401601771078207930748F06EEA8FEA44
:104C400094E00E946E0F109218011092170180914B
:104C50009403909195030197D1F4809192039091E0
:104C60009303892BA1F440919C0350919D03052E41
:104C7000000C660B770B80ED97E00E940D0960E257
:104C800073E080E090E00E94CB0A0E94A70888E0D1
:104C90000E945008892BC9F50E94B60B009183052C
:104CA000109184052091850530918605601B710B5C
:104CB000820B930B6A3F71058105910530F10E94CB
:104CC0005B0F0E94B60B60938305709384058093FD
:104CD0008505909386050091AE031091AF031016E1
:104CE000110644F44FE050E060E070E08DE298E09F
:104CF0000E940D098091170190911801009709F009
:104D00005BC10E94B1110E94C41B8BE00E9450083D
:104D1000892B09F04FC00E94B60B009183051091BA
:104D200084052091850530918605601B710B820BEF
:104D3000930B6A3F710581059105E0F10E945B0FBD
:104D40000E94B60B6093830570938405809385055C
:104D5000909386058091AE039091AF0318161906C3
:104D600044F44FE050E060E070E08DE299E00E9492
:104D70000D098091170190911801019751F48091CC
:104D8000B1039091B203892B21F48EE39BE00E9442
:104D9000F6198091170190911801892B09F089C2A9
:104DA0000E94B1118091B1039091B203892B11F44B
:104DB0000E94C41B8AE00E945008892B09F04FC052
:104DC0000E94B60B00918305109184052091850502
:104DD00030918605601B710B820B930B6A3F710546
:104DE00081059105E0F10E945B0F0E94B60B609374
:104DF0008305709384058093850590938605809143
:104E0000AE039091AF031816190644F44FE050E03A
:104E100060E070E088EB97E00E940D098091170137
:104E200090911801019751F48091B1039091B203D0
:104E3000892B21F480E69BE00E94F61980911701EE
:104E400090911801892B09F06AC20E94B1118091DA
:104E5000B1039091B203892B11F40E94C41B82EC20
:104E600094E00E94DB18892B09F491C282EC94E053
:104E70000E94751889831A820091AD041091AE04C6
:104E80000F5F1F4FC8010E946115882341F32091D5
:104E9000A9043091AA048091AD049091AE04BE01A2
:104EA0006F5F7F4F820F931F0E94832F1093AE047A
:104EB0000093AD04D4CF84B5806284BD08BD29CEF3
:104EC0008091800080688093800010938900009317
:104ED00088001FCE809180008062809380001093B4
:104EE0008B0000938A0015CE8091800088608093AB
:104EF000800010938D0000938C000BCE8091900069
:104F0000806880939000109399000093980001CEE0
:104F10008091900080628093900010939B0000939A
:104F20009A00F7CD80919000886080939000109354
:104F30009D0000939C00EDCD8091C000806880931F
:104F4000C0008091C0008F7B8093C0000093CF0091
:104F5000E0CD8091C00080628093C0000093D000BB
:104F6000D8CD8091C20088608093C2008091C20039
:104F70008B7F8093C2000093D200CBCD0038110507
:104F80000CF0A2CD50CD61E086E00E94D1084BCD5F
:104F9000909395038093940326CE48E8442E43E1F2
:104FA000542E612C712C409211015092120160928A
:104FB00013017092140127CE019709F0A6CE20911B
:104FC000B1033091B2032115310519F40E94671B1A
:104FD0009CCE121613060CF098CE8091AC039091E3
:104FE000AD032130310509F04CC0009779F48FEA08
:104FF00094E00E9498110E94C41B1092B203109278
:10500000B1031092AD031092AC037FCE81309105B5
:1050100049F41092AD031092AC030E948C120E94CE
:10502000D71A73CE8230910539F41092AD031092E5
:10503000AC030E94001569CE83309105C1F48091C4
:105040001501909116018530910564F401969093B5
:1050500016018093150180911501909116010E940F
:10506000830FB4CFF0921601E0921501F4CF0497AC
:1050700009F04BCE1092AD031092AC030E94581A67
:1050800044CE2230310509F097C0009789F4809111
:10509000A6039091A7030196853E27E092072CF482
:1050A0009093A7038093A603BACF82EE97E0F8CF40
:1050B0008130910599F42091A4033091A5032F5FCD
:1050C0003F4F2D3031052CF43093A5032093A403DA
:1050D000A6CF9093A5038093A403A1CF823091051E
:1050E00089F48091A2039091A30301969093A30366
:1050F0008093A20380970CF492CFF092A303E092E6
:10510000A2038DCF8330910589F48091A003909103
:10511000A10301969093A1038093A00348970CF4F8
:105120007ECF1092A1031092A00379CF8430910515
:1051300089F480919E0390919F03019690939F0321
:1051400080939E03CC970CF46ACF10929F03109229
:105150009E0365CF8530910529F520919E033091FE
:10516000A0034091A2035091A4038091A6039091C3
:10517000A703803DA7E09A0710F0805D97408983E0
:105180005A834B833C832D831E82CE0101960E945D
:10519000C0121092AD031092AC038FEA94E00E940B
:1051A000981114CF069709F0B0CD1092AD0310926C
:1051B000AC030E948C12F1CF23303105B1F500977A
:1051C00009F404CF8130910571F4012B39F4EFE03B
:1051D000F0E0F093AF03E093AE032BCF1092AF0358
:1051E0001092AE0326CF029709F08FCD80919C03D9
:1051F00090919D03892BA1F434E6432E512C5092BB
:105200009D0340929C0344E650E060E070E080ED36
:1052100097E00E940D098FEA94E00E94981109CF4F
:1052200010929D0310929C03F6CF2430310509F0B3
:105230006CCD009781F480919A0390919B03892B08
:1052400029F4F0929B03E0929A0318CF10929B03EB
:1052500010929A0313CF8130910591F480919803B5
:10526000909199038731910534F4019690939903B5
:105270008093980303CF1092990310929803FECE67
:105280008230910591F480919603909197038B332E
:10529000910534F401969093970380939603EECE94
:1052A0001092970310929603E9CE039709F02DCD43
:1052B0008DCE8091B1039091B203181619060CF0AF
:1052C00079CD2091AC033091AD034091AA03509168
:1052D000AB032417350764F0215031093093AD0337
:1052E0002093AC038130910541F40E94671B62CD8D
:1052F0002091A8033091A903EFCF8230910519F4D2
:105300000E94D71A57CD8330910519F40E940015D9
:1053100051CD049709F04ECD0E94581A4BCD809183
:10532000B1039091B203181619060CF098CD209194
:10533000AC033091AD034091A8035091A9034150B3
:1053400051092417350764F42F5F3F4F3093AD03A5
:105350002093AC038130910541F40E94671B7FCDFF
:105360001092AD031092AC03F5CF8230910519F481
:105370000E94D71A74CD8330910519F40E9400154C
:105380006ECD049709F06BCD0E94581A68CD8091BC
:10539000AD049091AE04892B09F460C042E350E063
:1053A00060E070E080ED97E00E940D0960E273E03C
:1053B00080E090E00E94CB0A0E94A7086DEC72E0AA
:1053C00082EC94E00E94F2138091170190911801F1
:1053D000892B11F40E94B1118FEA94E00E94981178
:1053E0006DED72E08FEA94E00E94F2134091AD04FB
:1053F0005091AE046091A9047091AA048FEA94E0E0
:105400000E94560766EE71E08FEA94E00E946113F5
:1054100090E080E00E9461152091A9043091AA04D7
:10542000811180C02115310519F0C9010E94122E89
:105430001092AA041092A9041092AE041092AD0426
:105440001092AC041092AB0468E873E180E090E045
:105450000E94CB0A8FEA94E00E9498118091170174
:1054600090911801892B09F04DC08091B0038111F2
:1054700049C0F89484B7877F84BF809160008861B9
:105480008093600024E0522E509260008091600072
:1054900080648093600078948091D80080628093CB
:1054A000D80089B58D7F89BD8091D8008F77809392
:1054B000D80083B7817F846083BF83B7816083BF57
:1054C000889583B78E7F83BF83B78E7F83BF80919C
:1054D000A7049091A8048F3F980791F09C01220F98
:1054E000331F220F331F207287708860822B98E150
:1054F0000FB6F894A895909360000FBE809360005B
:105500000E94FE0AC114D10409F438CA21143104DE
:1055100009F434CA0E940000882309F42FCA0E94AB
:1055200000002CCA1092AE041092AD0468EE71E037
:10553000C9010E94832F88CF8091A9049091AA0469
:10554000009711F00C94122E0895FB01DC0102C0AB
:1055500005900D9241505040D8F70895E89409C045
:1055600097FB3EF490958095709561957F4F8F4F96
:105570009F4F9923A9F0F92F96E9BB279395F695AC
:10558000879577956795B795F111F8CFFAF4BB0F2A
:1055900011F460FF1BC06F5F7F4F8F4F9F4F16C08E
:1055A000882311F096E911C0772321F09EE8872F18
:1055B000762F05C0662371F096E8862F70E060E0D4
:1055C0002AF09A95660F771F881FDAF7880F96954D
:1055D000879597F908950E94FE2A0C946F2B0E94DC
:1055E000612B38F00E94682B20F0952311F00C9469
:1055F000582B0C945E2B11240C94A32B0E94802B0F
:1056000070F3959FC1F3950F50E0551F629FF00115
:10561000729FBB27F00DB11D639FAA27F00DB11D2E
:10562000AA1F649F6627B00DA11D661F829F2227B7
:10563000B00DA11D621F739FB00DA11D621F839F3E
:10564000A00D611D221F749F3327A00D611D231F14
:10565000849F600D211D822F762F6A2F11249F5762
:1056600050409AF0F1F088234AF0EE0FFF1FBB1F65
:10567000661F771F881F91505040A9F79E3F510524
:1056800080F00C94582B0C94A32B5F3FE4F3983ECE
:10569000D4F3869577956795B795F795E7959F5FCE
:1056A000C1F7FE2B880F911D9695879597F9089560
:1056B00097F99F6780E870E060E008959FEF80ECC5
:1056C000089500240A941616170618060906089568
:1056D00000240A9412161306140605060895092ECE
:1056E0000394000C11F4882352F0BB0F40F4BF2B3D
:1056F00011F460FF04C06F5F7F4F8F4F9F4F08957D
:1057000057FD9058440F551F59F05F3F71F0479572
:10571000880F97FB991F61F09F3F79F08795089557
:10572000121613061406551FF2CF4695F1DF08C076
:10573000161617061806991FF1CF86957105610593
:1057400008940895E894BB2766277727CB0197F93B
:105750000895A1E21A2EAA1BBB1BFD010DC0AA1FB2
:10576000BB1FEE1FFF1FA217B307E407F50720F0CA
:10577000A21BB30BE40BF50B661F771F881F991F45
:105780001A9469F760957095809590959B01AC018E
:10579000BD01CF010895052E97FB1EF400940E94D1
:1057A000E22B57FD07D00E94A92B07FC03D04EF433
:1057B0000C94E22B50954095309521953F4F4F4FDB
:1057C0005F4F089590958095709561957F4F8F4FAD
:1057D0009F4F08950E942C2CA59F900DB49F900D73
:1057E000A49F800D911D112408952F923F924F92F6
:1057F0005F926F927F928F929F92AF92BF92CF9261
:10580000DF92EF92FF920F931F93CF93DF93CDB769
:10581000DEB7CA1BDB0B0FB6F894DEBF0FBECDBFE1
:1058200009942A88398848885F846E847D848C84B2
:105830009B84AA84B984C884DF80EE80FD800C81BB
:105840001B81AA81B981CE0FD11D0FB6F894DEBF9E
:105850000FBECDBFED010895A29FB001B39FC0015F
:10586000A39F700D811D1124911DB29F700D811D8C
:105870001124911D08955058BB27AA270E94532C2C
:105880000C946F2B0E94612B38F00E94682B20F043
:1058900039F49F3F19F426F40C945E2B0EF4E09536
:1058A000E7FB0C94582BE92F0E94802B58F3BA1772
:1058B000620773078407950720F079F4A6F50C9426
:1058C000A22B0EF4E0950B2EBA2FA02D0B01B901DF
:1058D00090010C01CA01A0011124FF27591B99F066
:1058E000593F50F4503E68F11A16F040A22F232F72
:1058F000342F4427585FF3CF469537952795A795C2
:10590000F0405395C9F77EF41F16BA0B620B730B68
:10591000840BBAF09150A1F0FF0FBB1F661F771FD9
:10592000881FC2F70EC0BA0F621F731F841F48F48E
:10593000879577956795B795F7959E3F08F0B0CF17
:105940009395880F08F09927EE0F979587950895FE
:105950000E94BC2C0C946F2B0E94682B58F00E9464
:10596000612B40F029F45F3F29F00C94582B511122
:105970000C94A32B0C945E2B0E94802B68F399232C
:10598000B1F3552391F3951B550BBB27AA2762173B
:105990007307840738F09F5F5F4F220F331F441F48
:1059A000AA1FA9F335D00E2E3AF0E0E832D091507C
:1059B0005040E695001CCAF72BD0FE2F29D0660F69
:1059C000771F881FBB1F261737074807AB07B0E8AC
:1059D00009F0BB0B802DBF01FF2793585F4F3AF0B2
:1059E0009E3F510578F00C94582B0C94A32B5F3FED
:1059F000E4F3983ED4F3869577956795B795F79538
:105A00009F5FC9F7880F911D9695879597F908951F
:105A1000E1E0660F771F881FBB1F621773078407BB
:105A2000BA0720F0621B730B840BBA0BEE1F88F7CA
:105A3000E09508950E94212D6894B1110C94A32B38
:105A400008950E94882B88F09F5798F0B92F9927C6
:105A5000B751B0F0E1F0660F771F881F991F1AF059
:105A6000BA95C9F714C0B13091F00E94A22BB1E0F1
:105A700008950C94A22B672F782F8827B85F39F0F0
:105A8000B93FCCF3869577956795B395D9F73EF4F2
:105A900090958095709561957F4F8F4F9F4F08959A
:105AA000991B79E004C0991F961708F0961B881F70
:105AB0007A95C9F780950895AA1BBB1B51E107C0D1
:105AC000AA1FBB1FA617B70710F0A61BB70B881F8E
:105AD000991F5A95A9F780959095BC01CD0108951D
